:020000040800F2
:100000006809002089020008B3300008872800082A
:10001000B1300008B50600089B3900080000000058
:10002000000000000000000000000000CB330008CA
:10003000B706000800000000B5300008CD33000806
:10004000A3020008A3020008A3020008A3020008FC
:10005000A3020008A3020008A3020008A3020008EC
:10006000A3020008A3020008A3020008A3020008DC
:10007000A3020008A3020008A3020008A3020008CC
:10008000A302000800000000A3020008A302000869
:10009000A3020008A3020008A3020008A3020008AC
:1000A000A3020008A3020008A3020008A30200089C
:1000B000A3020008A302000849340008A3020008B4
:1000C000A3020008A3020008A3020008A30200087C
:1000D000A3020008A3020008A3020008A30200086C
:1000E000A3020008A3020008A30200085534000878
:1000F000793400086D340008613400080000000005
:1001000000000000A302000800000000A302000895
:10011000A302000800000000A3020008A3020008D8
:10012000A3020008A3020008A3020008A30200081B
:10013000A30200080000000000000000A302000865
:10014000A3020008A3020008000000000000000055
:10015000000000000000000000000000000000009F
:10016000000000000000000000000000A3020008E2
:10017000A3020008000000000000000000000000D2
:1001800000000000A30200080000000000000000C2
:10019000000000000000000000000000000000005F
:1001A0000000000000000000A3020008A3020008F5
:1001B000A3020008A3020008A30200080000000038
:1001C00000000000A3020008000000000000000082
:1001D000A3020008A302000800F002F800F044F8AF
:1001E0000AA090E8000C82448344AAF10107DA4592
:1001F00001D100F039F8AFF2090EBAE80F0013F0A0
:10020000010F18BFFB1A43F001031847545B0000AD
:10021000745B0000103A24BF78C878C1FAD852073E
:1002200024BF30C830C144BF04680C607047000070
:100230000023002400250026103A28BF78C1FBD8EF
:10024000520728BF30C148BF0B607047642900F0D7
:10025000AD80732900F09981002070471FB504F02C
:1002600089FC1FBD10B510BD00F093F91146FFF7D2
:10027000F5FF03F079FD00F0B1F903B4FFF7F2FFE9
:1002800003BC00F0B9F9000009488047094800475D
:10029000FEE7FEE7FEE7FEE7FEE7FEE7FEE7FEE736
:1002A000FEE7FEE704480549054A064B7047000093
:1002B00039340008D90100086803002068090020CB
:1002C00068050020680500200FB41CB5074B06AA7E
:1002D0007B4469460090059800F02DF9002069469E
:1002E00000F03CF91CBC5DF814FB00008902000022
:1002F0002DE9F0410E460446002020622046E168C8
:10030000884730B3252805D0D4E901219047206AD9
:10031000401CF2E7E168204600278847050018D016
:10032000A5F14100192802D820354FF40067324664
:10033000294620462760FFF789FF40B1012804D0F5
:10034000F61D26F007060836D8E7361DD6E72846FC
:10035000DAE7206ABDE8F08170B50C460546012A4F
:1003600005D02878800600D5EA69002302E0012341
:1003700005E05B1C934202D2E05C0028F9D1A86939
:10038000E618C01AA861286A184428622846AFF304
:10039000008004E0D5E9012114F8010B9047B44234
:1003A000F8D32846AFF3008070BD00002DE9F0417E
:1003B0000646002410687529314616A510D0AFF303
:1003C0000080002802DA404213A507E031688A075E
:1003D00001D512A502E0490704D511A5012401E0C9
:1003E000AFF3008000210A2206F1240709E0B0FBE8
:1003F000F2FCB0FBF2F302FB1C00303078541846DC
:10040000491C0028F3D123462A463046BDE8F04176
:1004100000F032B8000000002D0000002B000000AA
:10042000200000004FF0000200B5134694469646A7
:10043000203922BFA0E80C50A0E80C50B1F12001F7
:10044000BFF4F7AF090728BFA0E80C5048BF0CC0A5
:100450005DF804EB890028BF40F8042B08BF704703
:1004600048BF20F8022B11F0804F18BF00F8012B75
:1004700070477047704770472DE9F0470D46994621
:100480009246044600F124080168880604D5E06914
:1004900021F01001216000E00120A84201DD471B8E
:1004A00000E00027A1697A1902EB0900081AA0618F
:1004B0002078C00602D42046AFF30080002608E072
:1004C000D4E901211AF806009047206A401C761CE6
:1004D00020624E45F4DB2078C0060AD52046AFF3F3
:1004E000008006E0D4E9012130209047206A401CBA
:1004F0002062381EA7F10107F4DC07E0D4E90121EE
:1005000018F805009047206A401C2062281EA5F1BB
:100510000105F3DC2046AFF300802078000602D509
:100520000220BDE8F0870120FBE7000001694A1CBA
:1005300002610878704700B58FB0CDE90131002124
:10054000059105497944CDE9031011466846FFF746
:10055000CFFE0FB000BD0000E5FFFFFF0A6802F804
:10056000010B0A60704710B5436913B1AFF3008007
:1005700001E0FFF7F1FE012010BD127800F1240127
:100580000A7000224A700122EDE711684FF0FF3235
:10059000E9E7754600F02CF8AE460500694653467B
:1005A00020F00700854618B020B5FFF77BFEBDE8B8
:1005B00020404FF000064FF000074FF000084FF0CA
:1005C000000B21F00701AC46ACE8C009ACE8C0095B
:1005D000ACE8C009ACE8C0098D46704710B50446C8
:1005E000AFF300802046BDE81040FFF746BE000094
:1005F000004870470403002001491820ABBEFEE705
:100600002600020070470000F8B504460020009064
:100610002068816811F0010F41D18168214A11429F
:100620002ED18168D5432940491C81601E488068CD
:1006300000F0E07000020DD51C481D490068B0FBB9
:10064000F1F0401C00EB4000800000E0401E0090F4
:100650000028FBD100F0E8FD06461BE0816811F0A0
:10066000010F03D181682940491C816000F0DCFD45
:10067000801B02280ED920680068C043C00709D03B
:10068000E06D40F01000E065206E40F00100206653
:100690000120F8BD20680168C943C907DED10020E8
:1006A000F8BD00003F000080000300501000002053
:1006B000400D0300FEE77047002240F6B83306E025
:1006C0000021491C89B29942FBD3521C92B282424A
:1006D000F6D3704772B6FEE72DE9F047044690F86E
:1006E00058009CB00E464FF00009012815D001209B
:1006F00084F8580000251795189520684FF0A048F9
:1007000040450ED1284F0097384602F0BFFA824686
:10071000206802F0BBFA60B10EE002201CB0BDE818
:10072000F087E06D40F02000E06584F8585001202B
:10073000F4E7BAF1000F09D0E06D40F02000E06569
:100740004FF0010984F858504846E7E717483268E7
:1007500040F61F71002A826822F4604216D094F895
:10076000383042EA433273681A438260D8F808206E
:10077000BB6802F0010203F001031A43E2D1B3683F
:1007800032681A4383688B431A430BE08260D8F8BF
:100790000820BB6802F0010203F001031A43D1D123
:1007A00082688A438260CDE7000100500003005058
:1007B0002DE9F84F00270446009790F85800DFF81D
:1007C000E0930D46B846012811D0012684F8586000
:1007D000206802F057FA60B1E06D40F02000E0655B
:1007E0005FF0010784F858803846BDE8F88F022092
:1007F000FBE7D5E900210C23206803EA9113184494
:10080000036B01F01F014FF01F0C0CFA01FCC2F347
:10081000846223EA0C038A4013430363206802F0D6
:1008200031FA8246206802F029FA5AEA00003CD1E7
:10083000AA6829682068B2F1004F37D002F02AFA7E
:100840002068416921F00041416120686969C268FE
:10085000C2F3C102520091402A69042A31D000EB50
:1008600082002B68026EDFF83CC303F0F84302EA13
:100870000C020B431A4342F00041016620682A69CA
:10088000A96900EB8200026E22F080720A430266C0
:10089000297F22682869012910D0002102EB8000FD
:1008A000026E22F000720A4302667DE0002202F02E
:1008B000F1F92068416941F00041C5E74FF000714E
:1008C000ECE7002102F0D4F9400320684FF000016A
:1008D00072D002F0CDF990FAA0F0B0FA80F1286859
:1008E00042036ED090FAA0F0B0FA80F0814204D1B9
:1008F00000221146206802F0DCF90121206802F094
:10090000B7F9400320684FF001015DD002F0B0F963
:1009100090FAA0F0B0FA80F12868420359D090FA1A
:10092000A0F0B0FA80F0814204D1002201212068B9
:1009300002F0BFF90221206802F09AF94003206812
:100940004FF0020148D002F093F990FAA0F0B0FA0B
:1009500080F12868420344D090FAA0F0B0FA80F009
:10096000814204D100220221206802F0A2F9032171
:10097000206802F07DF9400320684FF0030133D076
:1009800002F076F990FAA0F0B0FA80F128684203FC
:100990002FD090FAA0F0B0FA80F0814204D100226A
:1009A0000321206802F085F92068816811F0010FA9
:1009B00022D0ACE000E004E002F05AF9C0F3846118
:1009C0008DE7C0F3846091E702F052F9C0F38461CF
:1009D000A2E7C0F38460A6E702F04AF9C0F384619D
:1009E000B7E7C0F38460BBE702F042F9C0F384616B
:1009F000CCE7C0F38460D0E72A7B296850F8B03F89
:100A0000C1F3120C23EA0C0302F0180C664A22FA16
:100A10000CF20A4013430360E968494577D128681E
:100A200041031CD090FAA0F1B1FA81F1491C01F008
:100A30001F0109294FEA403132D8002912D000BFE6
:100A400090FAA0F1B1FA81F101F1010101F01F0169
:100A500006FA01F609D100BFC0F3846109E0C0F3D2
:100A60008461E3E7C0F38461EEE790FAA0F1B1FAA4
:100A700081F101F1010101F01F0146EA816102D11A
:100A8000C0F3846003E090FAA0F0B0FA80F000F1C7
:100A9000010000F01F0000EB400041EA005132E08D
:100AA00000290ED090FAA0F1B1FA81F101F1010113
:100AB00001F01F0106FA01F606D100BFC0F3846100
:100AC00006E0C0F38461F1E790FAA0F1B1FA81F198
:100AD00001F1010101F01F0146EA816102D1C0F379
:100AE000846003E090FAA0F0B0FA80F000F1010019
:100AF00000F01F002D4A00EB400002EB005041EADD
:100B0000000141F00071AA68206802F0C3F828488B
:100B10002A6802423FF466AE26488168264B01F0FF
:100B2000E0719A4202D0254B9A421CD10B021AD492
:100B30002268B2F1A04F7FF455AE826841F4000103
:100B400022F0E0720A4382601D481E490068B0FB33
:100B5000F1F0401C00EB4000800000E0401E0090DF
:100B60000028FBD13EE6184D184BAA4207D1CD0113
:100B700005D422689A42F5D041F0807109E0144D05
:100B8000AA42EFD14A02EDD422689A42EAD041F457
:100B90008001826822F0E0720A43826022E600004F
:100BA00000007F4000F0FF03FFFF0700000020FE71
:100BB0000000088000030050000021C31000C09016
:100BC00010000020400D0300000052C7000100503B
:100BD000000084CB0068006C70470000F8B54FF04F
:100BE000000504002E46009502D0E06D10B107E02C
:100BF0000120F8BD204600F0EBF8266684F8586026
:100C000020688168C1F3407119B18168684A114058
:100C1000816020688168C1F3007189B98168654A83
:100C2000114041F080518160634864490068B0FB25
:100C3000F1F04000801C00E0401E00900028FBD135
:100C400020688168C1F3007141B9E16D41F0100184
:100C5000E165216E41F001012166012502F012F8E3
:100C6000E16DC90600D430B1E06D40F01000E065E0
:100C700001252846F8BDE06D20F4807040F00200A8
:100C8000E0652068806810F0010F11D14FF0A0409E
:100C900080684B4900F00100896801F001010843B8
:100CA00006D148486168826822F47C120A43826057
:100CB000E168E06B627F0843A16841EA4231084382
:100CC00094F8241040EA0140012904D1218D3E4AC4
:100CD00002EB41410843E16A29B101F47871226BCA
:100CE000014342EA01002268D168384B19400143B0
:100CF000D16020680169626B21F04061114301619C
:100D0000206801F0BBFF70BB207F94F8381080038F
:100D100040EA41022168C86844F202039843104344
:100D2000C86020690028206801690AD041F4803138
:100D30000161206850F8C01F22696FF30D01114353
:100D400007E021F480310161206850F8C01F6FF383
:100D50000D01016094F8400001280CD02068016961
:100D600021F001010161606901282068016B21F017
:100D70000F0111D013E0D4E911010843D4E9131293
:100D80001143084321680A6940F2FC739A431043F7
:100D900040F001000861E6E7226A521E1143016338
:100DA000E06D20F0020040F00100E06561E7000026
:100DB000C0FFFF5FC0FFFF7F10000020400D030059
:100DC00000010050000300500000FEFF0740F0FF4C
:100DD0002DE9F04397B00446142111A8FFF722FB38
:100DE00044216846FFF71EFB4FF0005021682D4D4F
:100DF0000327DFF8B49086132C4C4FF00008B1F1B4
:100E0000A04F10D02A4A914248D100960F906846D0
:100E100000F008FB08B1FFF75DFC2868401C286063
:100E2000012824D02BE000960F90684600F0FAFAD3
:100E300008B1FFF74FFC2868401C2860012807D143
:100E4000E06C40F40050E064E06C00F40050169058
:100E5000E06C40F00200E064E06C11A900F00200D8
:100E600016904FF4805081E88101484614E0E06C10
:100E700040F40050E064E06C00F400501690E06C28
:100E800040F00200E064E06C11AA00F0020016904D
:100E900082E8C00111A9484600F098F817B0BDE8F3
:100EA000F083000000000020000400480010024011
:100EB000000100502DE9F04104463848806800F0F8
:100EC0001F05206801F0DEFE18B102210846BDE8CA
:100ED000F08194F8580001280CD0012084F85800C3
:100EE0002046FFF791FB01004FF0000304D084F887
:100EF0005830EBE70220EAE7E06D40F601629043EC
:100F000040F48070E065264A20684FF0A046904289
:100F100001D1374600E00746874200D01DB9E76D92
:100F200027F48017E765E76DFF0404D5276E27F0E7
:100F30000607276600E023661C27076084F8583000
:100F40002068904201D1334600E00346834215D029
:100F5000A5B1052D12D0092D10D0E36D43F48013F7
:100F6000E365904200D13046C0688001AED5E06DA7
:100F700020F4005040F48050E065A7E7C268920179
:100F800005D5E26D22F4005242F48052E265826897
:100F9000044B1A40121D826098E7000000030050C5
:100FA00000010050C0FFFF7F70B5044600F03CF91F
:100FB0000546601C02D004484068044400F034F93F
:100FC000401BA042FAD370BD040000202DE9F04F71
:100FD000DFF82092002301260324A9F1040B85B039
:100FE0000F2709F1040AABF1040EFAE006FA03F543
:100FF0002A407CD091F804C00CF0030CBCF1010F26
:1010000002D0BCF1020F26D1D0F808C0CDF800C044
:101010004FEA430C04FA0CF8CDF810C0DDF800C01C
:101020002CEA080CCDF800C0D1F80C80DDF810C017
:1010300008FA0CF8DDF800C048EA0C08C0F808808F
:10104000D0F804C02CEA050C0D79C5F300159D40BD
:1010500045EA0C0545600D79ED43AD070ED0C56836
:101060004FEA430804FA08FC25EA0C05D1F808C049
:101070000CFA08FC4CEA050CC0F80CC00D7905F020
:101080000305022D16D1DD0800EB850CCDF808C054
:10109000DCF820805D074FEAD56C07FA0CF528EAEA
:1010A00005080D6905FA0CF5DDF808C045EA0805E4
:1010B000CCF8205005684FEA430CCDF808C004FA7C
:1010C0000CFC25EA0C0591F804C00CF00308DDF8CF
:1010D00008C008FA0CF848EA0508C0F800804D6816
:1010E00015F4403F7CD0444DD5F860C000E077E077
:1010F0004CF0010CC5F860C02D6E23F0030C05F018
:10110000010500953D4D65440295AD684FEA837C2D
:101110004FEA1C7807FA08FC25EA0C05B0F1904F5D
:1011200006D0DFF8DCC0604505D14FF0010C20E0AF
:101130004FF0000C1DE0DFF8CCC0604502D14FF04D
:10114000020C16E0DFF8C0C0604502D14FF0030C7E
:101150000FE0DFF8B8C0604502D14FF0040C08E0A2
:10116000DFF8ACC0604502D14FF0050C01E04FF054
:10117000060C0CFA08FC4CEA050C029DC5F808C0E8
:10118000D9F80050CC46D1F8048095435FEAC828CE
:1011900000D51543CCF80050DAF80050D446D1F809
:1011A000048095435FEA882800D51543CCF80050A9
:1011B000DBF80050DC46D1F8048095435FEA8838BC
:1011C00000D51543CCF80050DEF80050F446D1F8B5
:1011D000048095435FEAC83800D51543CCF8005029
:1011E0005B1C0A6832FA03F57FF400AF05B0BDE876
:1011F000F08F000008040140001002400000014090
:101200000004004800080048000C00480010004896
:10121000001400480069084000D0012070470AB15E
:1012200081617047816270470148806870470000A3
:1012300004000020024881684268114481607047C0
:101240000400002010B50024032000F073F80F20E4
:1012500000F008F808B1012401E000F025F820466C
:1012600010BD000070B50E4E05460024706898B1A0
:101270004FF47A71B1FBF0F00A490968B1FBF0F064
:1012800000F03CFD40B9102D06D200222946501E28
:1012900000F030F8356000E00124204670BD000009
:1012A00004000020100000200A4882B0016E41F0C6
:1012B00001010166016E01F001010091816D41F0B3
:1012C00080518165806D00F08050009002B000F088
:1012D000A1B8000000100240002809DB00F01F0246
:1012E000012191404009800000F1E020C0F8001188
:1012F00070470000F0B40E4B1B680C46C3F302238A
:10130000C3F10705042D00D90425191D072901D2B1
:10131000002300E0DB1E012606FA05F1491E2140EC
:1013200099409E40761E16403143F0BC02F036BB19
:101330000CED00E0064900F0070208684FF6FF03D5
:10134000184040EA0220034A10430860704700003A
:101350000CED00E00000FA052B492C4B0A68322105
:101360004A432B4940B1B0F5007F086829D020F4EA
:10137000C06040F480602CE00868C0F3412002287F
:1013800004D051F8800F20F4807022E0D1F8800062
:1013900020F48070C1F88000086820F4C06040F438
:1013A00000700860B2FBF3F0401C00E0401E4A6988
:1013B000520501D50028F9D1486940050AD5032016
:1013C0007047C0F34120022806D051F8800F40F446
:1013D0008070086000207047D1F8800040F4807071
:1013E000C1F88000086820F4C06040F40070086014
:1013F000B2FBF3F0401C00E0401E4A695205DBD509
:101400000028F9D1D8E700001000002040420F006A
:10141000007000400248816841F48041816070475B
:10142000007000402DE9F8430446006800269D4DF9
:1014300000035ED5A86D0027C00008D4A86D40F059
:101440008050A865A86D012700F080500090DFF85B
:101450005892D9F8001041F48071C9F80010FFF7D4
:10146000E3FE804606E000BFFFF7DEFEA0EB0800CB
:1014700002282BD8D9F80000C005F5D5D5F8900082
:1014800010F4407014D0216C814211D0D5F8900036
:10149000D5F8901020F4407041F48031C5F89010D8
:1014A000D5F8901021F48031C5F89010C5F890005F
:1014B000C00711D0FFF7B8FE804641F2883907E037
:1014C000FFF7B2FEA0EB0801494501D903260BE066
:1014D000D5F890008007F3D5D5F89000216C20F462
:1014E00040700843C5F890001FB1A86D20F08050EF
:1014F000A8652078C00707D0D5F88800616820F07B
:1015000003000843C5F888002078800707D5D5F880
:101510008800A16820F00C000843C5F888002078F6
:10152000400707D5D5F88800E16820F0300008436F
:10153000C5F888002078000707D5D5F8880021690C
:1015400020F0C0000843C5F888002078800607D541
:10155000D5F88800616920F440600843C5F8880028
:101560002078400607D5D5F88800A16920F44050BE
:101570000843C5F888002078000607D5D5F888000C
:10158000E16920F440400843C5F888002088C00580
:1015900007D5D5F88800216A20F440300843C5F803
:1015A00088002088800507D5D5F88800616A20F476
:1015B00040200843C5F88800208840050FD5D5F89D
:1015C0008800A16A20F440100843C5F88800A06A8A
:1015D000B0F5801F03D1E86840F48010E8602088EF
:1015E00000050FD5D5F88800E16A20F440000843D3
:1015F000C5F88800E06AB0F5800F03D1E86840F4D0
:101600008010E8602088C0040FD5D5F88800216BD1
:1016100020F040700843C5F88800206BB0F1807F4F
:1016200003D1E86840F48010E86020884FF0006142
:1016300080040ED5D5F88800626B20F0406010431E
:10164000C5F88800606B884203D1E86840F48010D8
:10165000E860208840040ED5D5F88800A26B20F001
:1016600040601043C5F88800A06B884203D1E86849
:1016700040F48010E860208800040FD5D5F8880079
:10168000E16B20F040500843C5F88800E06BB0F1F2
:10169000805F03D1E86840F48030E8603046BDE800
:1016A000F883000000100240007000402DE9F04770
:1016B0000E4605004FF0000725D0DFF8AC81D8F8C2
:1016C000000000F00F00B0420CD2D8F8001021F05A
:1016D0000F013143C8F80010D8F8000000F00F00E7
:1016E000B04210D12968614CC80741F2883A5AD0FB
:1016F0006868DFF87C91032808D0022820682DD084
:10170000400500282CDB0120BDE8F087206880011F
:10171000F9D5E06800F00302E068C0F30310401C54
:10172000032A19D0534A00BFB2FBF0F0E268C2F3BB
:1017300006225043E268C2F34162521C5200B0FBE1
:10174000F2F0484517D9A06810F0F00F0CD08807C8
:1017500011D5A86840B10EE0474AE5E78003D0E71D
:1017600000F092F8484506D9A06820F0F00040F05B
:101770008000A0608027A068696820F0030008430B
:10178000A060FFF751FD814606E000BFFFF74CFD6A
:10179000A0EB090151453AD8A068696800F00C0037
:1017A000B0EB810FF2D12868810714D5400703D52B
:1017B000A06840F4E060A0602878000705D5A06824
:1017C00020F4605040F4E060A060A068A96820F0B8
:1017D000F000084304E0802F03D1A06820F0F0005F
:1017E000A060D8F80010404601F00F01B14216D9B0
:1017F000016821F00F0131430160FFF715FD074635
:1018000007E000BFFFF710FDC11B514501D90320C0
:101810007AE7D8F8000000F00F00B042F2D1287843
:10182000400705D5A068E96820F4E0600843A0609F
:101830002878000706D5A068296920F4605040EA9E
:10184000C100A06000F020F8A1680C4AC1F30311A8
:10185000515C01F01F01C84009490860094800684F
:10186000BDE8F047FFF7FEBC002002400010024038
:1018700000B4C4040024F40000366E017E4B00085E
:101880001000002004000020184910B58868C0F33B
:1018900081021748012A0BD08A68164BC2F38102D5
:1018A000022A06D08A68C2F38102032A03D00020EC
:1018B00010BD184610BDCA6802F00304CA68C2F31E
:1018C0000312521C032C02D0B0FBF2F001E0B3FB78
:1018D000F2F0CA68C968C2F306225043C1F34161FD
:1018E000491C4900B0FBF1F010BD0000001002409F
:1018F0000024F40000366E012DE9F84304007AD08C
:101900002078F84DC00747D0A868E96800F00C00BF
:1019100001F003010C2802D0082817D001E00329A8
:1019200014D06068B0F5803F17D0B0F5A02F2868BC
:1019300017D020F480302860286820F480202860A8
:101940006068E0B1FFF770FC064614E02868800389
:1019500022D560680028D2D01EE0286840F480308C
:10196000EDE740F480202860F7E700BFFFF75CFC5C
:10197000801B642870D828688003F7D50CE0FFF737
:1019800053FC064605E000BFFFF74EFC801B6428B1
:10199000F0D828688003F7D4207880074CD5A86851
:1019A000E96800F00C0001F003010C2802D00428C3
:1019B0000DD001E002290AD0E068002828682BD069
:1019C00040F480702860FFF72FFC064619E0286875
:1019D000400502D5E068002891D06868217C20F09D
:1019E000FE4040EA01606860BF480068FFF73AFCCB
:1019F000002800D120E072E1FFF716FC801B0228CE
:101A0000B8D828684005F7D56868217C20F0FE40EA
:101A100040EA016068600FE020F480702860FFF702
:101A200003FC064605E000BFFFF7FEFB801B022813
:101A3000A0D828684005F7D42078000729D5606928
:101A40000028D5F8940013D040F00100C5F89400A8
:101A5000FFF7EAFB064606E090E000BFFFF7E4FB75
:101A6000801B022886D8D5F894008007F6D510E0B0
:101A700020F00100C5F89400FFF7D6FB064604E00D
:101A8000FFF7D2FB801B022878D8D5F89400800796
:101A9000F6D42078400761D5A86D0026C00008D490
:101AA000A86D40F08050A865A86D012600F0805018
:101AB00000908E480168C90511D40168804641F440
:101AC00080710160FFF7B0FB074604E0FFF7ACFB55
:101AD000C01B022852D8D8F80000C005F6D5A0686F
:101AE000012815D00528D5F8900016D020F0010067
:101AF000C5F89000D5F8900020F00400C5F89000DB
:101B0000A06841F28838B8B1FFF78EFB07460EE0B7
:101B1000D5F8900040F00100F0E740F00400C5F86F
:101B20009000F5E7FFF780FBC11B414526D8D5F8AB
:101B300090008007F6D50CE0FFF776FB074604E03F
:101B4000FFF772FBC11B414518D8D5F890008007FC
:101B5000F6D41EB1A86D20F08050A86520788006CC
:101B600029D5A0690028D5F8980013D040F00100CD
:101B7000C5F89800FFF758FB064606E075E000BF81
:101B8000FFF752FB801B02286FD8D5F8980080071A
:101B9000F6D510E020F00100C5F89800FFF744FBEF
:101BA000064604E0FFF740FB801B02285DD8D5F80D
:101BB00098008007F6D4E069F0B3A968C1F3810109
:101BC00003295DD00228286820F08070286003D0A7
:101BD000FFF72AFB04464BE0FFF726FB064604E02E
:101BE000FFF722FB801B02283FD828688001F7D42A
:101BF000F4E908016FF00F0202EB01110843218A9A
:101C00005204490802EB4151A26841EA022108430B
:101C1000217D4FF07E42490802EB41610843217B60
:101C200040EAC160E968324A11400843E860286828
:101C300040F08070286000E05EE0E86840F080706E
:101C4000E860FFF7F1FA044605E000BFFFF7ECFAA1
:101C5000001B022809D828688001F7D54CE000BF96
:101C6000FFF7E2FA001B022802D90320BDE8F8833F
:101C700028688001F4D4E8681E490840E8603BE029
:101C80000128F3D0E868226A00F00301914226D1CE
:101C9000616A00F0F0020901103991421FD1A26A75
:101CA00000F4FE41B1EB022F19D194F82C2000F082
:101CB0007841B1EBC26F12D1218E00F4C002490805
:101CC0004905A1F50011914209D194F8341000F0B2
:101CD000C06049084906A1F1007181420CD0012081
:101CE000C4E7000000100240040000200070004023
:101CF0000C809F01FCFFEEFE0020B7E710B5401EF0
:101D0000B0F1807F01D3012010BD4FF0E02460616D
:101D10000F21601701F042FE0020A0610720206122
:101D2000002010BD7047704770477047704770477C
:101D3000F0B590F83C20012A3AD0012580F83C50BB
:101D4000022280F83D2003685A689C68194E1A4F99
:101D5000B34201D0BB4204D122F4700C4A6842EA7B
:101D60000C02DFF858C002EA0C02D1F800C04CEABD
:101D7000020CC3F804C00268B2420DD0B2F1804F29
:101D80000AD00F4B9A4207D00E4B9A4204D0BA4267
:101D900002D00D4B9A4204D1896824F08003194384
:101DA000916080F83D50002180F83C100846F0BD5D
:101DB0000220F0BD002C0140003401408FFFFFFDE8
:101DC000000400400008004000400140704710B58A
:101DD000040003D094F83D0010B107E0012010BDCD
:101DE000002084F83C00204600F022F8022084F80D
:101DF0003D00211D206801F045FB012084F84800CA
:101E000084F83E0084F83F0084F8400084F84100E4
:101E100084F8420084F8430084F8440084F84500C4
:101E200084F8460084F8470084F83D00002010BD87
:101E300010B586B0044614216846FEF7F3FA21680F
:101E40003648B1F1804F0CD0354A914211D1816DA5
:101E500041F002018165806D00F00200059006B03E
:101E600010BD816D41F001018165806D00F00100C0
:101E7000F4E72C4A91420ED1816D41F00401816555
:101E8000806D002200F00400059011461E20FFF72F
:101E900031FA1E203EE0244A9142E0D1016E41F425
:101EA00000510166016E01F400510591C16C41F0D1
:101EB0000101C164C06C002100F0010005904FF4E5
:101EC000004000900220CDE90101CDE903106946F0
:101ED0004FF09040FFF77AF8002211462B20FFF7D1
:101EE00009FA2B20FFF7F8F9002211462C20FFF702
:101EF00001FA2C20FFF7F0F9002211462D20FFF700
:101F0000F9F92D20FFF7E8F9002211462E20FFF7FE
:101F1000F1F92E20FFF7E0F9A1E7000000100240E0
:101F200000040040000800400034014090F83D10DB
:101F3000012901D001207047022180F83D1000687E
:101F40000F4988420ED0B0F1804F0BD00D49884226
:101F500008D00D49884205D00C49884202D00C496E
:101F6000884207D181680B4A1140062906D0B1F595
:101F7000803F03D0016841F00101016000207047FB
:101F8000002C0140000400400008004000340140E3
:101F9000004001400700010090F83D10012901D0E8
:101FA00001207047022180F83D100168CA6842F0A4
:101FB0000102CA600068104988420ED0B0F1804F1B
:101FC0000BD00E49884208D00D49884205D00D49F2
:101FD000884202D00C49884207D181680B4A1140DF
:101FE000062906D0B1F5803F03D0016841F0010118
:101FF0000160002070470000002C014000040040F8
:10200000000800400034014000400140070001008A
:1020100070B5044690F83C000025012814D0012634
:1020200084F83C60022084F83D0022689068364BBA
:10203000184020F47F409060086870282ED010DC93
:1020400010F00F0F03D021E04FF0020070BD4FEAF7
:102050002012072A1AD2DFE802F0525252524A38AE
:1020600040002A4BC21A984249D009DCB0F5805F83
:102070000DD0B0F5005F1CD0B0F1101F06D13EE0CE
:10208000102A3CD0202A3AD0502A38D0012584F892
:102090003D60002084F83C00284670BDCB68D1E943
:1020A0000121206801F059FA2068816841F0770128
:1020B00009E0CB68D1E90121206801F04EFA2068DF
:1020C000816841F480418160E1E7CA68496820681D
:1020D00001F0EEFB5021206806E0CA6849682068DC
:1020E00001F02EFC6021206801F042FACFE7CA68B7
:1020F0004968206801F0DCFB40212068F4E7226891
:1021000001461046F0E7000088FFCEFF20001000D7
:102110000649884208D106480168064AB2FBF1F137
:10212000054A516000210160704700006C020020E8
:102130002434014040420F00180000202DE9F041F6
:10214000054690F83C0000260C46012810D00120DE
:1021500085F83C0072B1042A1CD0082A2CD00C2A25
:1021600050D00126002085F83C003046BDE8F081C3
:102170000220FBE7D4E90012E368286801F0AAFB1B
:102180002868816921F00C01816128688169A26851
:1021900011430FE0D4E90012E368286801F0E2FB84
:1021A0002868816921F44061816128688169A26899
:1021B00041EA02218161D5E72868D4E9002C277B18
:1021C000036A016A21F480710162C16923F420630A
:1021D00021F0030141EA0C0121F0F00C39074FF422
:1021E00020674CEA116107EA02221A43C1610262C8
:1021F0002868C16921F00C01C1612868C169A26821
:1022000011432BE02868D4E90021E768036AD0F87D
:1022100020C02CF4805CC0F820C0D0F81CC023F48F
:1022200020432CF4407C4CEA012121F4704C4FF601
:10223000FF7101EA07314FF4204741EA0C0107EA38
:1022400002321A43C16102622868C16921F4406107
:10225000C1612868C169A26841EA0221C16181E7C0
:1022600010B5040003D094F83D0010B107E0012040
:1022700010BD002084F83C00204600F022F8022027
:1022800084F83D00211D206801F0FCF8012084F84D
:10229000480084F83E0084F83F0084F8400084F849
:1022A000410084F8420084F8430084F8440084F834
:1022B000450084F8460084F8470084F83D0000207B
:1022C00010BD704730B50446002571B1042911D006
:1022D000082914D00C2917D0102918D094F84300DD
:1022E00094F84720012817D114E094F83E0094F8A0
:1022F0004420F7E794F83F0094F84520F2E794F87B
:10230000400094F84620EDE794F84100E8E794F89F
:102310004200E5E7012A01D0012030BD022079B159
:10232000042916D008291DD00C2949D010294AD0DB
:1023300084F8430084F847000C2947D001253DE08C
:1023400084F83E0084F844002068C26842F002022B
:1023500010E084F83F0084F845002068C26842F02D
:10236000040207E084F8400084F846002068C26850
:1023700042F00802C2600122206801F0E1F816492B
:10238000206888420ED0B0F1804F0BD013498842AC
:1023900008D01349884205D01249884202D0124918
:1023A000884207D18168114A1140062906D0B1F54B
:1023B000803F03D0016841F001010160284630BD33
:1023C00084F84100B6E784F84200B3E72068C268A9
:1023D00042F01002CEE70000002C01400004004053
:1023E00000080040003401400040014007000100A7
:1023F0002DE9F04104460068C66805694FF0000702
:10240000A90713D5B10711D5F91E01610120207765
:10241000206880698007204602D0FFF779FE04E03B
:1024200000F0E0F8204600F0A2F92777680716D5FB
:10243000700714D521686FF004000861022020772E
:102440002068806910F4407F204602D0FFF760FECC
:1024500004E000F0C7F8204600F089F92777280744
:1024600015D5300713D521686FF0080008610420E6
:1024700020772068C0698007204602D0FFF748FE19
:1024800004E000F0AFF8204600F071F92777E80685
:1024900016D5F00614D521686FF0100008610820E9
:1024A00020772068C06910F4407F204602D0FFF7F3
:1024B0002FFE04E000F096F8204600F058F9277748
:1024C000E80708D0F00706D021686FF00100086126
:1024D000204600F0CBF9280601D4A80408D5300620
:1024E00006D521686FF4025008612046FFF71BFCF7
:1024F000E80508D5300606D521686FF480700861BC
:102500002046FFF70FFC680608D5700606D521683F
:102510006FF040000861204600F0B4F9A80608D525
:10252000B00606D521686FF0200008612046FFF74D
:10253000FBFBE80208D5F00206D521686FF4801095
:1025400008612046FFF7F2FBA80208D5B00206D5C5
:1025500021686FF4001008612046FFF7E6FB68026F
:1025600008D5700206D521686FF480000861204606
:10257000FFF7DDFB28020AD5300208D521686FF489
:10258000000008612046BDE8F041FFF71FBCBDE830
:10259000F081000010B586B0044614216846FDF7AE
:1025A00041FF0E492068884215D10D48C16C41F0A9
:1025B0000101C164C06C002100F001000590802081
:1025C00000900220CDE90101CDE9031069464FF0EA
:1025D0009040FEF7FBFC06B010BD00000004004078
:1025E00000100240704770B5044690F83C00002689
:1025F0000D4601280BD0012084F83C000C2A4AD05B
:1026000007DC82B1042A20D0082A06D131E002205A
:1026100070BD102A53D0142A63D00126002084F8FC
:102620003C00304670BD206800F0ACFF2068816936
:1026300041F0080181612068816921F00401816114
:10264000206881692A69114311E0206800F0E8FFE1
:102650002068816941F4006181612068816921F409
:1026600080618161206881692A6941EA0221816172
:10267000D4E7206801F01CF82068C16941F0080126
:10268000C1612068C16921F00401C1612068C1698C
:102690002A69114311E0206801F052F82068C169ED
:1026A00041F40061C1612068C16921F48061C161A8
:1026B0002068C1692A6941EA0221C161AEE7206848
:1026C00001F086F82068016D41F00801016520687D
:1026D000016D21F0040101652068016D2A69114333
:1026E00011E0206801F0ACF82068016D41F4006150
:1026F00001652068016D21F4806101652068016D2C
:102700002A6941EA0221016588E710B5040003D077
:1027100094F83D0010B107E0012010BD002084F8BE
:102720003C00204600F022F8022084F83D00211DE4
:10273000206800F0A7FE012084F8480084F83E00DD
:1027400084F83F0084F8400084F8410084F8420097
:1027500084F8430084F8440084F8450084F8460077
:1027600084F8470084F83D00002010BD7047704792
:1027700030B50446022269B1042912D0082917D0C5
:102780000C291CD0102921D094F84300012824D012
:10279000012030BD94F83E000128F9D184F83E2094
:1027A0001DE094F83F000128F2D184F83F2016E0A4
:1027B00094F840000128EBD184F840200FE094F811
:1027C00041000128E4D184F8412008E094F8420057
:1027D0000128DDD184F8422001E084F84320012261
:1027E000206800F0ADFE194B20681949194A98423B
:1027F00009D0884207D0904205D0174DA84202D098
:10280000164DA84203D1456C45F400454564206847
:1028100098420CD0B0F1804F09D0114B984206D0AD
:10282000104B984203D0884201D0904207D1816872
:102830000D4A1140062906D0B1F5803F03D001684A
:1028400041F001010160002030BD0000002C01407A
:102850000034014000400140004401400048014074
:1028600000040040000800400700010003498842BE
:1028700003D103488169491C81617047200200200F
:10288000180000207047FEE700B585B014216846A7
:10289000FDF7C8FD4FF6FF70009000200321CDE941
:1028A0000201019069460248FEF790FB05B000BDA9
:1028B0000008004800B585B014216846FDF7B2FD58
:1028C0004FF6FF700090012001900320039000203C
:1028D000029069460248FEF779FB05B000BD000092
:1028E000000800482DE9F0410A4E80463068002477
:1028F00085B22146204600F017F900F055F94FF453
:102900009637404600F024F9641CBC42F9D3356088
:10291000BDE8F0811408004870B586B014216846FF
:10292000FDF780FD1E48C16C41F00401C164C16C1B
:1029300001F004010591C16C41F00101C164C16C59
:1029400001F001010591C16C41F00201C164C06C4C
:10295000032500F0020005904FF448700124002682
:1029600003958DE8510069460E48FEF72FFB2002C3
:1029700003958DE851004FF0904469462046FEF7DC
:1029800025FBFFF797FFA06940F48070A061054820
:102990001830016841F40871016006B070BD000094
:1029A0000010024000040048203AD2B2034B02EB70
:1029B000420203EB021200F023B800008E4B000825
:1029C0002DE9F043DFF8348081460E46D8F8000048
:1029D000002587B240F23F1407E021464846FFF742
:1029E000E3FF103C6D1CA4B2761C32780AB1142DA2
:1029F000F3D3C8F80070BDE8F08300001408004865
:102A00002DE9F04791468A460026044600F08CF8EE
:102A1000DFF84080012700BF00F0C6F85FF0000536
:102A200039F8160007FA05F10842404601D14088FE
:102A300000E0008800F08CF86D1C102DF0D3641CB1
:102A4000E4B25146204600F06FF8761C182EE3D30E
:102A5000BDE8F087A800002070B50D4E306885B243
:102A6000FFF75AFF002000F017F80A4CA080A0885A
:102A7000A0F50241303907D000F0A6FB002000F09D
:102A80000BF8A080356070BD00F015FBF6E7000084
:102A900014080048A800002070B51D490A6842F4D7
:102AA00000720A600A6842F480720A60184C103C96
:102AB000226842F020022260164A1060086840F046
:102AC0002000086000BF00BF00BF206840F0200069
:102AD0002060206840F480702060FFF7D5FE4FF042
:102AE0009041886A40F48070886200BF00BF00BFD8
:102AF0000848001F006885B2886940F480708861CA
:102B0000FFF7D8FE206840F400702060284670BDB2
:102B1000280400481408004801B5BDF80000014928
:102B2000488008BDA800002010B50C4601462020B2
:102B300000F068F82146BDE81040212000F062B89E
:102B400001B5BDF800000149088008BDA8000020BB
:102B5000134A116841F400711160114910390B6872
:102B600043F480730B600B6843F020030B600D4B44
:102B70001860106840F02000106000BF00BF00BF68
:102B8000086840F020000860086840F48070086021
:102B900000BF00BF00BF086840F4007008607047C5
:102BA00028040048140800481449086840F40070DC
:102BB0000860086840F480700860104810380268A7
:102BC00042F0200202600E4B22221A600A6842F094
:102BD00020020A6000BF00BF00BF016841F0200171
:102BE0000160016841F48071016000BF00BF00BF57
:102BF000016841F40071016070470000280400483A
:102C000014080048184B10B51A6842F400721A6094
:102C10001A6842F480721A60134A103A146844F039
:102C200020041460114C2060186840F020001860E7
:102C300000BF00BF00BF106840F0200010601068A7
:102C400040F4807010602160186840F02000186027
:102C500000BF00BF00BF106840F020001060106887
:102C600040F48070106010BD28040048140800482B
:102C700000EB8100006E00F0F84070478068C0F300
:102C8000C00070478068C0F3800070478068C0F360
:102C900080007047042303EAD15310B518444369F8
:102CA000C1F3045107248C40A3438A40134343617A
:102CB00010BD00EB8100016E21F00041114301665F
:102CC0007047000030B58BB000240894099420218F
:102CD00068460A94FDF7A6FB1C484FF0A041042566
:102CE00001604FF40031C0E90114C4600461C0E91F
:102CF0000545047744770121016280F82440C462CD
:102D0000046380F83840C46380F84040FDF766FFF4
:102D100008B1FDF7DFFC08A90C480894FDF7DCFCBE
:102D200008B1FDF7D7FC0A4800900620CDE9010460
:102D30007F200594CDE9030569460448FDF738FD79
:102D4000002801D0FDF7C6FC0BB030BDB00000205C
:102D50000008302E30B589B020216846FDF762FBAF
:102D600019481849002401604902C0E90114C460EF
:102D700004250461C0E90545047744770121016217
:102D800080F82440C462046380F83840C46380F84B
:102D90004040FDF723FF08B1FDF79CFC0B48009075
:102DA0000620CDE901047F200594CDE9030569469D
:102DB0000548FDF7FDFC002801D0FDF78BFC09B0AC
:102DC00030BD0000000100501C0100200080F03EDA
:102DD000F0B587B014216846FDF724FB2D48C16C7F
:102DE00041F00401C164C16C01F004010591C16CA2
:102DF00041F02001C164C16C01F020010591C16C5A
:102E000041F00101C164C16C01F001010591C16C87
:102E100041F00201C164C16C01F002010591C16C75
:102E200041F00801C164C06C1B4E00F008004FF473
:102E30007F440590012221463046FEF7F0F9174FF6
:102E4000012204213846FEF7EAF90125CDE90045C3
:102E500000240294694630460394FEF7B7F8CDE9A2
:102E6000005469464FF090400295FEF7AFF80720F6
:102E70008DE8310069460A48FEF7A8F80420009062
:102E8000CDE90154694638460394FEF79FF807B030
:102E9000F0BD00000010024000080048000C00488F
:102EA0000004004810B588B000241748009401942D
:102EB00002940394049405944FF0804106940160B9
:102EC00041F63F71C0E90114611EC0E90314846139
:102ED000FEF77DFF08B1FDF7FDFB4FF48050009039
:102EE00069460948FFF794F808B1FDF7F3FB04942D
:102EF00004A905480694FEF71BFF002801D0FDF742
:102F0000E9FB08B010BD00008801002010B58EB0AC
:102F100000240794089409940A940B940C941C219F
:102F200068460D94FDF77EFA1E481D49016040F287
:102F30001F31C0E901146321C0E903148461FEF765
:102F400046FF08B1FDF7C6FB4FF48050079007A974
:102F50001448FFF75DF808B1FDF7BCFB1148FFF717
:102F6000D4FB08B1FDF7B6FB0B940BA90D480D94EB
:102F7000FEF7DEFE08B1FDF7ADFB602000900A20F1
:102F8000CDE901040422694606480494FFF72BFBAF
:102F900008B1FDF79FFB0348FFF7FCFA0EB010BD28
:102FA00000040040D401002010B588B00024184867
:102FB0000094019402940394049405941349069494
:102FC000016041F63F71C0E9011442F20F71C0E99E
:102FD00003148461FEF7FBFE08B1FDF77BFB4FF4A1
:102FE0008050009069460A48FFF712F808B1FDF7D3
:102FF00071FB049404A906480694FEF799FE002884
:1030000001D0FDF767FB08B010BD000000080040CC
:103010002002002010B58CB000240A9423480794A5
:1030200008940994059406940494009401940294DD
:103030001D49039401604F21C0E901144FF6FF714F
:10304000C0E9031444618461FEF7C1FE08B1FDF7D5
:1030500041FB4FF48050079007A91448FEF7D8FFB2
:1030600008B1FDF737FB1148FFF7FAF808B1FDF793
:1030700031FB0494059404A90C480694FEF758FE0D
:1030800008B1FDF727FB0120CDE9004002940022A2
:10309000694606480394FFF751F8002801D0FDF770
:1030A00019FB0CB010BD0000003401406C02002080
:1030B000FEE7FEE7704730B501210020FFF7A2FDD3
:1030C0004FF47A70FDF7F8FA00210120FFF79AFD1E
:1030D00041F290711020FFF795FD4FF41C516020D4
:1030E000FFF790FD01216120FFF78CFD02214620B2
:1030F000FFF788FD48F210011320FFF783FD48F227
:10310000FE011220FFF77EFD4FF4A0610220FFF7C1
:1031100079FD41F230010320FFF774FD40F20334E2
:1031200021463020FFF76EFD21463120FFF76AFD72
:1031300021463220FFF766FDE51E29463320FFF7C2
:1031400061FD03213420FFF75DFD21463520FFF7A7
:1031500059FD14213620FFF755FD21463720FFF792
:1031600051FD21463820FFF74DFD21463920FFF75C
:1031700049FD29463A20FFF745FD03213B20FFF793
:1031800041FD21463C20FFF73DFD4FF4A0513D207D
:10319000FFF738FD4FF400719220FFF733FD214611
:1031A0009320FFF72FFD40F60D019020FFF72AFD39
:1031B00041F218010320FFF725FDBDE8304040F241
:1031C00073110720FFF71EBD10B543F20801E3207D
:1031D000FFF718FD1221E720FFF714FD41F231211E
:1031E000EF20FFF70FFD00210120FFF70BFD4FF44B
:1031F000E0610220FFF706FD41F230010320FFF7F6
:1032000001FD00210420FFF7FDFC40F2072108200A
:10321000FFF7F8FC00210920FFF7F4FC00210A2049
:10322000FFF7F0FC00210C20FFF7ECFC00210D2043
:10323000FFF7E8FC00210F20FFF7E4FC002110203D
:10324000FFF7E0FC07211120FFF7DCFC0021122032
:10325000FFF7D8FC00211320FFF7D4FCC820FDF7AE
:10326000A3FE41F290611020FFF7CCFC40F2272131
:103270001120FFF7C7FC3220FDF796FE1D2112201A
:10328000FFF7C0FC3220FDF78FFE4FF400611320E2
:10329000FFF7B8FC14212920FFF7B4FC0B212B20E9
:1032A000FFF7B0FC3220FDF77FFE00212020FFF762
:1032B000A9FC00212120FFF7A5FC07213020FFF702
:1032C000A1FC40F207713120FFF79CFC062132205F
:1032D000FFF798FC40F204713520FFF793FC41F6AC
:1032E00004713620FFF78EFC04213720FFF78AFC9B
:1032F00000213820FFF786FC40F206713920FFF7E5
:1033000081FC40F201713C20FFF77CFC0F213D2045
:10331000FFF778FC00215020FFF774FCEF215120CB
:10332000FFF770FC00215220FFF76CFC40F23F11C8
:103330005320FFF767FC4FF41C516020FFF762FC3D
:1033400001216120FFF75EFC00216A20FFF75AFC93
:1033500000218020FFF756FC00218120FFF752FC5E
:1033600000218220FFF74EFC00218320FFF74AFC5A
:1033700000218420FFF746FC00218520FFF742FC56
:1033800010219020FFF73EFC00219220FFF73AFC2D
:1033900003219320FFF736FC4FF488719520FFF747
:1033A00031FC00219720FFF72DFC00219820FFF72A
:1033B00029FC41F218010320FFF724FCBDE810406E
:1033C00040F273110720FFF71DBC7047FDF732BFB5
:1033D00010B594B038216846FDF724F814210EA8E2
:1033E000FDF720F84FF40070FDF7B6FF01200090C4
:1033F0000004019002200324CDE907041421CDE943
:103400000A100C900D9009946846FEF775FA08B101
:1034100072B6FEE70F20CDE90E0400201090119047
:10342000129002210EA8FEF741F9002801D072B6D1
:10343000FEE714B010BD00000248016841F47001BD
:103440000160704788ED00E00148FEF7D1BF000041
:10345000200200200148FEF7CBBF00006C020020D4
:103460000148FEF7C5BF00006C0200200148FEF7CE
:10347000BFBF00006C0200200148FEF7B9BF00008A
:103480006C0200202DE9F0430268264B264D274EA2
:10349000274C4FF08049984207D0484505D0A842B4
:1034A00003D0B04201D0A04203D122F070074A6895
:1034B0003A43204FDFF880C0DFF8808098420DD07B
:1034C00048450BD0A84209D0B04207D0A04205D051
:1034D000B84203D0604501D0404503D122F4407585
:1034E000CA682A434D6922F080022A4302608A6832
:1034F000C2620A688262984207D0A04205D0B842F0
:1035000003D0604501D0404501D109690163012123
:1035100041610169C90703D0016921F0010101611D
:10352000BDE8F083002C014000040040000800408A
:103530000034014000400140004401400048014087
:1035400010B501F01F030121046A99408C43046205
:10355000016A9A401143016210BD10B5846842EAC5
:10356000032224F47F440A432243826010BD0000FA
:103570008268034B1A400A4342F00701816070479A
:103580008FFFCFFF2DE9F043056A026A22F00102A6
:103590000262436882691C4C25F0020522400C68D7
:1035A00022F0030214438A68194E2A43174D194F1B
:1035B000DFF864C0DFF86490A84207D0B04205D0BD
:1035C000B84203D0604501D0484506D122F0080832
:1035D000CA6842EA080222F00402A84207D0B042B8
:1035E00005D0B84203D0604501D0484505D14D69AA
:1035F00023F440731D438B692B4343608461496806
:1036000041630262BDE8F0838FFFFEFF002C0140A2
:1036100000340140004001400044014000480140A6
:10362000F0B5056A026A22F01002026242688369FC
:10363000194C1B4E23400C6823F4407343EA0424C6
:1036400025F020038D6843EA0513144DA84201D0EC
:10365000B04206D1CF6823F0800343EA071323F07A
:103660004003A8420AD0B04208D00E4DA84205D06F
:103670000D4DA84202D00D4DA84207D14D6922F44C
:10368000406242EA85028D6942EA850242608461B5
:10369000496881630362F0BDFF8FFFFE002C01408B
:1036A0000034014000400140004401400048014016
:1036B000F0B5056A026A22F4807202624368C26948
:1036C000194C1B4E22400C6822F00302144325F4CF
:1036D00000728D6842EA0522144DA84201D0B04222
:1036E00006D1CF6822F4006242EA072222F4806207
:1036F000A8420AD0B04208D00E4DA84205D00E4DC7
:10370000A84202D00D4DA84207D14D6923F4405381
:1037100043EA05138D6943EA05134360C4614968B0
:10372000C1630262F0BD00008FFFFEFF002C01406C
:103730000034014000400140004401400048014085
:10374000F0B5056A026A22F4805202624268C369D7
:10375000194C1B4E23400C6823F4407343EA0424A5
:1037600025F400538D6843EA0533144DA84201D077
:10377000B04206D1CF6823F4004343EA073323F471
:103780008043A8420AD0B04208D00E4DA84205D0CE
:103790000D4DA84202D00D4DA84207D14D6922F42B
:1037A000404242EA85128D6942EA85124260C46154
:1037B000496801640362F0BDFF8FFFFE002C0140E9
:1037C00000340140004001400044014000480140F5
:1037D00030B5056A026A22F4803202624268036DE3
:1037E000114C23400C681C4325F400330D8943EA37
:1037F00005430E4DA8420BD00D4DA84208D00D4DEB
:10380000A84205D00C4DA84202D00C4DA84204D1CC
:103810004D6922F4803242EA05224260046549681B
:103820008164036230BD00008FFFFEFF002C014069
:103830000034014000400140004401400048014084
:1038400030B5046A026A22F4801202624268036D93
:10385000114D24F400142B400D6843EA05230D8913
:1038600044EA05540D4DA8420BD00D4DA84208D096
:103870000C4DA84205D00C4DA84202D00B4DA842D9
:1038800004D14D6922F4802242EA85224260036518
:103890004968C164046230BDFF8FFFFE002C014007
:1038A0000034014000400140004401400048014014
:1038B00010B5036A046A24F001040462846924F0E8
:1038C000F00444EA021423F00A020A43846102620B
:1038D00010BD000070B5056A046A24F0010404629A
:1038E0008469124EB0420ED0B0F1804F0BD0104E12
:1038F000B04208D00F4EB04205D00F4EB04202D0B9
:103900000E4EB04203D124F00304144301E044F00E
:1039100001041A0724F0F00444EA126225F00A03B5
:1039200001F00A0119438261016270BD002C01405F
:103930000004004000080040003401400040014005
:1039400010B5036A046A24F010040462846923F049
:10395000A00324F4704444EA023243EA0111826174
:10396000016210BD30B5046A056A25F010050562D4
:10397000856925F4407545EA022222F470454FF628
:10398000FF7202EA033224F0A0032A43A02404EACF
:10399000011119438261016230BDFEE70907090E7A
:1039A000002804DB00F1E02080F80014704700F0EC
:1039B0000F0000F1E02080F8141D704770B51D4D18
:1039C0002DED028B286A0A3800F0C1FE41EC180B7D
:1039D000686A00F0BCFE0E4646EC100B9FED161B0D
:1039E000044653EC112B51EC100B00F0DBFE53ECB2
:1039F000182B00F0F7FC46EC184BC5E91C0100F051
:103A000089F895ED1C1B51EC100B53EC112B00F0B9
:103A1000E9FC53EC182B00F0C5FE9FED091B53EC9D
:103A2000112B00F037FC00F065FE07490860BDEC83
:103A3000028B70BD180000206666666666660A40E6
:103A400000000000000024403804004070B5204C05
:103A50002DED028BE06AA0F57A7000F078FE41EC63
:103A6000180BA06A00F073FE0E4646EC100B9FED9B
:103A7000191B054653EC112B51EC100B00F092FE74
:103A800053EC182B00F0AEFC46EC185BC4E91E01A9
:103A900000F062F894ED1E1B51EC100B53EC112B4F
:103AA00000F0A0FC53EC182B00F07CFE9FED0B1BEC
:103AB00053EC112B00F0EEFB00F0ECFD0949A06087
:103AC00091FBF0F00849401E0860BDEC028B70BD10
:103AD000180000206666666666660A400000000000
:103AE00000408F4000350C00280400400848026A5E
:103AF0000A2A09DBC16AB1F57A7F05DB436A934282
:103B000002DC806A884201DD012070470020704796
:103B10001800002010B50B48FDF7CCF90948FDF757
:103B200059F800F02BFE9FED081B53EC112B00F011
:103B300039FE9FED071B53EC112B00F033FE41ECD7
:103B4000100B10BD1C0100206666666666660A40A2
:103B5000000000000000303F10B50B48FDF7AAF947
:103B60000948FDF737F800F009FE9FED081B53ECFC
:103B7000112B00F017FE9FED071B53EC112B00F0EB
:103B800011FE41EC100B10BDB000002066666666A9
:103B900066660A40000000000000303F2DE9F04159
:103BA0005C4D01212846FDF735FB5B4C022120606E
:103BB0002846FDF72FFB606004212846FDF72AFB0D
:103BC000A06001214FF09040FDF724FBE060534AD4
:103BD0002768A2F1800117B91368012B08D00025CE
:103BE00066684FF0804E032336B1012E1CD023E0CF
:103BF0000B685B1C0B6084E05668012E1CD10E68BC
:103C000096FBF3FC03FB1C6CBCF1020F05D096FB8A
:103C1000F3FC03FB1C6626B10EE0CB6D5B1CCB6591
:103C20006FE0CEF824506CE056682EB90E6896FB13
:103C3000F3FC03FB1C661EB1394DA668C6B121E03A
:103C4000DEF8246044F620639E4203D90D614D6185
:103C50008D6156E0DEF824609E4252D2CB69012B82
:103C600001D013B14DE0CD614BE00123CB6148E0C1
:103C70009668012E06D10E6896FBF3FC03FB1C66CA
:103C8000022E01D0C0B13CE0CB6D9E0707D02B4087
:103C9000012B07D0022B08D0032B09D031E04B6A4F
:103CA0005B1C20E00B6A0A3321E08B6A643322E05C
:103CB000CB6A03F57A7323E0D668012E21D10E6812
:103CC00096FBF3FC03FB1C63022B1AD1CB6D9E0702
:103CD00007D02B40012B08D0022B0AD0032B0CD08D
:103CE0000FE04B6A5B1E4B620BE00B6A0A3B0B62F8
:103CF00007E08B6A643B8B6203E0CB6AA3F57A73BF
:103D0000CB62176061685160A168C2E90210BDE82A
:103D1000F081000000040048F40200209800002018
:103D20000300008070B50E4D0C46064601220421AA
:103D30002846FDF774FA8022B2400A48012C01D0CF
:103D40001CB106E091B2002201E091B20122FDF720
:103D500066FA2846BDE8704000220421FDF75FBAEC
:103D6000000C004800080048FDF76CFAFFF730FB34
:103D7000FFF72EF8FEF7A6FFFEF7ECFFFFF792F82D
:103D8000FFF7C4F8FFF746F9FFF70EF904211248D0
:103D9000FEF7EEFC00211148FEF794FA1048FEF7FA
:103DA000FBF81048FEF7C2F8002204210E48FDF788
:103DB00036FAFEF751FE0020FEF794FD0020FEF7D4
:103DC000ABFE4FF6FF70FEF7BBFE00BF00F00EF833
:103DD000FFF7E4FEFAE70000D40100206C020020A7
:103DE0002002002088010020000C0048F8B5AA4CF1
:103DF000E06918B9FFF7E2FDFFF728FEA06900258A
:103E00003C2803DB6069401CC4E9050560693C2867
:103E100003DB2069401CC4E9040522690A2A01DA8F
:103E20009EA101E005DD9EA19B4800F16000FCF72A
:103E30004BFA62690A2A01DA98A101E005DD98A12E
:103E4000954800F16500FCF73FFAA2690A2A01DAF9
:103E500092A101E005DD92A18F4800F16A00FCF714
:103E600033FAE069012801D010B105E0012100E03A
:103E700000210220FFF756FF03202168012691FB55
:103E8000F0F200FB1212AAB191FBF0F200FB121249
:103E9000012A6FD091FBF0F200FB121002286AD1C8
:103EA00000F08CF900210120FFF73CFF606C002836
:103EB00075D0B7E000F082F96564A06C60B9FFF7D7
:103EC00015FE012807D1206D6062E06C2062606DF4
:103ED000A062A06DE062A66401210846FFF722FF00
:103EE00000210420FFF71EFF00210520FFF71AFF25
:103EF00000210620FFF716FF00210720FFF712FF21
:103F000000210820FFF70EFF66A16A48FCF7DCF9E4
:103F100068491820FEF754FD674800686649091D86
:103F20000968401C491C48436449B1FBF0F264A194
:103F30006048FCF7C9F95F494820FEF741FD5E483B
:103F40001030026862A15B48FCF7BEF95949602055
:103F5000FEF736FD62A157486268FCF7B5F955498E
:103F60007820FEF72DFDE06910B1012804D00BE0A8
:103F70005FA102E014E08DE061A14E48FCF7A4F9D6
:103F80004C499020FEF71CFD434861A16A30431F55
:103F900000905A1F4748FCF797F9464975E036E00C
:103FA00000F00CF900210120FFF7BCFEA5645CA124
:103FB00040486564FCF788F93E491820FEF700FD8B
:103FC0005BA13C48226BFCF77FF93A494820FEF799
:103FD000F7FC3FA13748626BFCF776F93549602062
:103FE000FEF7EEFC3EA13348A26BFCF76DF93149B8
:103FF0007820FEF7E5FC52A12E48E26BFCF764F94D
:104000002C499020FEF7DCFC2A4914313DE0E5659F
:10401000606A2065206AE064A06A6065E06AA06565
:10402000C4E911654AA12348FCF74EF9214918203B
:10403000FEF7C6FC4AA11F48626AFCF745F91D4914
:104040004820FEF7BDFC4AA11A48226AFCF73CF959
:1040500018496020FEF7B4FC49A11648A26AFCF793
:1040600033F914497820FEF7ABFC49A11148E26A04
:10407000FCF72AF90F499020FEF7A2FC0D4848A151
:104080002830FCF721F90B492831BDE8F840A82079
:10409000FEF796BCF8BD0000180000203025640033
:1040A000256400002020202020202050574D202073
:1040B00000000000B80200202804004000B4C4043E
:1040C00020202043463D2564487A202020200000FF
:1040D00020202043443D2564252520202020000069
:1040E00020202044463D2564487A202020200000DE
:1040F00020202053543D554E4C4F434B2020200050
:1041000020202053543D4C4F434B202020000000E2
:1041100020202025734825734D257353202020002F
:104120002020202020202052454344202000000051
:1041300020202043463D2564487A202020000000AE
:1041400020202058463D2564487A20202020000069
:10415000202020202020205041524120200000001B
:1041600020202044533D25642525202020200000C8
:1041700020202044523D25642525202020200000B9
:1041800020202046533D2564487A2020202000002E
:1041900020202046523D2564487A2020202000001F
:1041A000202020202020202020202020202020200F
:1041B00020202020202020202000000038B5284C7E
:1041C0004FF47A73D4E90120111A801A994201DC64
:1041D000984201DD236C53B140F2E732491E91420F
:1041E00002D3401E90422ED2E06868B330E01D4BEF
:1041F0001B681C4D2D1D2D685B1C6D1C6B431A4DDF
:10420000B5FBF3F32363174B10331B68C4E90D327E
:10421000002901D5E06301E000DDE1634FF0010119
:104220004FF00300FFF77EFD0D4801256A30E56081
:10423000431F00905A1F0DA11048FCF745F81E209F
:10424000FCF7B2FE256438BD0DA10C48FCF73CF824
:1042500000210320FFF766FD0020206438BD000028
:10426000180000202804004000B4C40420202025A9
:10427000734825734D25735320202000CC02002065
:10428000202020202020202020202020202020202E
:104290002000000010B591EA030F48BF83F00043EF
:1042A00000F18683841A71EB030C05D2121943EBDB
:1042B0000C03001B61EB0C01DFF824E14FEA115401
:1042C000A4EB135C1EEA430F18BF9EEA445F73D051
:1042D00023EA0E03DCF1200E21EA045143F480139B
:1042E00032D322FA0CFE10EB0E0023FA0CFE41EB47
:1042F0000E01CCF1200E03FA0EFE10EB0E0051F170
:104300000001B1F5801FCCF1200E32D201EB045137
:1043100012FA0EF2BDE8104058BF7047401C38BF7B
:104320005FEA420218BF7047002814BF20F0010066
:1043300041F100014FEA410313F5001F38BF7047F8
:10434000A1F1C04100F026BB012A43EB0302ACF10E
:10435000200CDCF11F0E32BF4FF0000E23FA0CF3DD
:1043600010EB030041EB0451B4EB115FD0D0A1EB93
:10437000045101F5801149085FEA300001EB045156
:104380000ED350F1000038BF12FA0EFE08D1BDE87E
:104390001040C9E7401C38BF5FEA4202CAD1C3E7F8
:1043A000BDE810404FEA410313F5001F38BF7047C6
:1043B000A1F1C04100F0EEBA9EEA445F08D011EAD4
:1043C0005E0FBDE8104004BF01F0004100207047BF
:1043D000BDE8104070B500F08FFA00BF64FBBE3E30
:1043E0000000E0FF2DE9C04130B4DFF8A0C23CEA94
:1043F000111418BF3CEA131400F0EC8081EA0305A5
:104400001CEA111444EAD57418BF1CEA131500F015
:10441000C780A4EB05044FF0004545EAC12145EAF9
:10442000C32341EA505143EA525304F17F74994245
:1044300004F500344FEAC0204FEAC22208BF904280
:1044400000F09C804FEA13650FF24016765D4FEA4C
:10445000134506FB05F7C7F1807706FB07F74FEA20
:10446000D737A7FB03687642C8F58038A7FB06CE8E
:1044700038BFA8F1010807FB08E64FF0000EA6FBC5
:10448000028CE6FB03CEDCF1000CCEF1004E38BF0F
:10449000AEF1010EA6FB0C584FF000074FF00005DF
:1044A000E6FB0E87A1FB08C6A0FB07CE16EB0E06A7
:1044B00045F10005E1FB076515F1E04E7EBFA4F56F
:1044C00080345FEA46066D4116F1800745F100052C
:1044D0004FEA17274FEA066647EA0567A6F1DE4668
:1044E000B6F1805F4FEA15251FD9384624F0010C3C
:1044F00005EBC471BCF1FE6F01EB0C1102D8F0BCEE
:10450000BDE8008124425CBF01F5801E9EEAC47FA5
:1045100002D4F0BCBDE80081244238D4F0BCA1F143
:10452000C041BDE8004100F035BA4FEAD22242EA6C
:1045300043524FEAD323A7FB02864FEAD02040EA3A
:10454000415007FB03661EEA0E0F4FEAD12105FB1F
:10455000026658BFA6EB0056B6EB00564FEA520E65
:104560004EEAC37E18EB0E0E56EB530EBDD518EB7C
:1045700002085E417F1C55F10005B6E74FF4801537
:104580004FF000074FF000064FF00008ADE7F0BC19
:104590004FF0000001F1C04101F00041BDE8008191
:1045A00011EA0C1F0CEA131500D00CE013EA0C1FE3
:1045B00000F025804FF00000F0BC81EA030101F01B
:1045C0000041BDE80081F0BCBDE8004181EA030183
:1045D00000F0E0B9F0BCBDE8004170B500F08CF926
:1045E000097EFC3E00F007B881EA03014FF00000AD
:1045F00001F00041704781EA030100F0CBB9F0BC43
:10460000BDE800414FF0000021497047FFFDFBF974
:10461000F7F5F4F2F0EEEDEBE9E8E6E4E3E1E0DEF5
:10462000DDDBDAD8D7D5D4D3D1D0CFCDCCCBCAC867
:10463000C7C6C5C4C2C1C0BFBEBDBCBBBAB9B8B78E
:10464000B6B5B4B3B2B1B0AFAEADACABAAA9A8A881
:10465000A7A6A5A4A3A3A2A1A09F9F9E9D9C9C9B4F
:104660009A999998979796959594939392919190FA
:104670008F8F8E8E8D8C8C8B8B8A8989888887878B
:104680008685858484838382828181800000FF0700
:104690000000F87F4FEA41034FEA5353A3F58063CC
:1046A000D3F11E03C8BFD3F1210C0CDD4FF0004243
:1046B00042EAC12242EA505232FA03FC8CEAE17C1F
:1046C000ACEBE1707047102BC4BF0020704703F5BE
:1046D000787CBCF1FF3F04D06FF0004282EA2100F9
:1046E000704770B500F008F94992248000207047A7
:1046F000F2E700004FEA1153A3F58063D3F11E03E4
:10470000A8BFD3F1200C08DB4FF0004242EAC122DF
:1047100052EA505232FA03F0704709420BD4102B80
:10472000C4BF0020704703F5787CBCF1FF3F05D083
:104730004FF0FF3070474FF00000704770B500F049
:10474000DBF800BF4992248000207047F0E710F0AA
:10475000004248BF4042B0FA80F310FA03F10AD099
:10476000C3F11D0303F580634FEA415002EB03528E
:1047700002EBD12170474FF000007047B0FA80F390
:1047800010FA03F10AD0C3F11D0303F580634FEA69
:1047900041504FEA035202EBD12170474FF0000025
:1047A00070470000DFF848C170B51CEA111E1EBF3B
:1047B0001CEA13159EEA0C0F95EA0C0F00F06F80AF
:1047C00081EA030423EA4C134EEAD47E21EA4C1119
:1047D00041F4801143F48013AE44A1FB024CA0FBD2
:1047E0000365AEF17F7E361955EB0C05A1FB034C3A
:1047F0004CF10003A0FB021C16EB0C06654153F1C3
:104800000003094218BF46F0010613F4007F0BD1E4
:104810004FEA03314FEA0530340341EA155140EACB
:1048200016506FF003020AE04FEAC3214FEAC52099
:10483000F40241EA555140EA56506FF0020202EB91
:104840002E4201EB025585EACE710AD05FEA440C94
:1048500018BF24F0004450F1000041F1000120EAAB
:10486000D47040F2FE7C624500D270BDA84214BFF5
:104870004FF080444FF04044002E08BF0024BEF1AA
:10488000806FA8BFA1F1C041BDE8704080F2828076
:104890004FF0000001F1C04101F0004170479EEA75
:1048A0000C0F0CEA131518BF95EA0C0F06D04FF049
:1048B000000081EA030E0EF0004170BD00F01CF80C
:1048C0008900013E00F007B800F009B84FEA430C38
:1048D0005FEA5C5C08D081EA030100F05BB84FEA54
:1048E000410C5FEA5C5CF6D14FF000000149704773
:1048F0000000FF070000F87F0EF1020E2EF0030EFD
:104900005EF8046B364205D4012A43EB030515F526
:10491000001F12D8012841EB010C1CF5001F0CD818
:104920000ED14FEAD17C15F5001F0CEB4C0C0CF1AD
:10493000020C08BF4CEBD37C04E04FF0080C01E004
:104940004FEAD37C0CEB4C0526FA05F606F0070679
:10495000B6F1040C06D20EEB860CBDE870404CF0AC
:10496000010C6047DFE80CF0090B02024FF0004138
:104970004FF00000A1F5002170BD19461046012836
:1049800051EB010418BFD4F5001484BF002001F0DE
:10499000004170BD0808A0F500114FEA31017047D1
:1049A00010B591EA030F48BF83F000433FF57AAC9E
:1049B000841A71EB030C07D212198CF0004C43EBF4
:1049C0000C03001B61EB0C01DFF8A4E14FEA11546A
:1049D000A4EB135C1EEA430F18BF9EEA445F00F08D
:1049E000B08023EA6E03524221EA0451C3EB6E0306
:1049F00038BF5B1EDCF1200E25D322FA0CFE10EB33
:104A00000E0043FA0CFE41EB0E01CCF1200E03FA2E
:104A10000EFE10EB0E0051F10001CCF1200E29D456
:104A200012FA0EF201EB0451BDE8104058BF704776
:104A3000401C1CBFB2F1004F704700280CBF491C3E
:104A400020F00100704712EB020E43EB030218BF87
:104A50004FF0010E4EEA4202ACF1200CDCF11E0ECA
:104A600054D943FA0CFE10EB0E0051F1FF31CCF19A
:104A70001E0ED5D50EF1010E12FA0EFE404141EB8D
:104A8000010101EB445C5FEA5C5C10D910EBDE7065
:104A900001EB045138BFBEF1004FBDE8104018BF14
:104AA000704700280CBF491C20F00100704730D22D
:104AB0004FEAD42C11F5001124F400641BD0B1FA94
:104AC00081F20B3AA41AA41ED2F12003914030FACD
:104AD00003F31943904001EBCC71002C01EB04511E
:104AE000BDE81040A8BF704701F1C0414FF0000081
:104AF00001F000417047B0FA80F310FA03F100D1E1
:104B000010BDE41A173C4805C90AE4E701EB04515B
:104B100010BD491001EB0451BDE810404FEA3000D0
:104B200002E04FF0000170474A0008BF0042F8D091
:104B3000B2F5001F28BF704701F000414FF00000A0
:104B400070479EEA445F07D011EA5E0FBDE810404F
:104B500004BF002100207047BDE8104070B5FFF78A
:104B6000CBFE00BF40DFF63E83F0004110467047A9
:104B70000000E0FF4FF04070E1EE100A70470000C7
:104B800000000000000001020304060708090000FD
:104B90000000000000000000000000000000000015
:104BA0000000000000000000000000000000000005
:104BB00000000000000000000000000000000000F5
:104BC00080018001800180018001800180018001DD
:104BD00080018001800180018001000000008001CF
:104BE0008001000000000000000000000000000044
:104BF0000000CC00CC00CC00CC00CC00CC000000ED
:104C000000000000000000000000000000000000A4
:104C10000000000000000000000000000000000094
:104C200000000000000000000000600C600C600C40
:104C300030063006FE1FFE1F300638071803FE1F21
:104C4000FE1F180318038C018C018C01000000006A
:104C50008000E003F80F9C0E8C1C8C188C009800D0
:104C6000F801E007800E801C8C188C189C18B80C7A
:104C7000F00FE00380008000000000000000000052
:104C8000000000000E181B0C110C11061106110378
:104C900011039B018E01C038C06C604460443044F5
:104CA00030441844186C0C3800000000000000006C
:104CB000E001F0033807180618063003F001F00091
:104CC000F8009C310E33061E061C061C063FFC73C2
:104CD000F0210000000000000000000000000000C3
:104CE00000000C000C000C000C000C000C0000007C
:104CF00000000000000000000000000000000000B4
:104D000000000000000000000000000000000000A3
:104D1000000200038001C000C0006000600030009D
:104D200030003000300030003000300030006000D3
:104D30006000C000C000800100030002000000000D
:104D400020006000C0008001800100030003000615
:104D50000006000600060006000600060006000326
:104D6000000380018001C0006000200000000000FE
:104D700000000000000000000000C000C000D806D5
:104D8000F807E001300338070000000000000000D1
:104D90000000000000000000000000000000000013
:104DA0000000000000000000000080018001800180
:104DB00080018001FC3FFC3F800180018001800177
:104DC0008001000000000000000000000000000062
:104DD00000000000000000000000000000000000D3
:104DE00000000000000000000000000000000000C3
:104DF000800180010001000180000000000000002F
:104E000000000000000000000000000000000000A2
:104E1000000000000000E007E007000000000000C4
:104E20000000000000000000000000000000000082
:104E30000000000000000000000000000000000072
:104E40000000000000000000000000000000000062
:104E5000C000C000000000000000000000000000D2
:104E6000000C000C0006000600060003000300030F
:104E70008003800180018001C000C000C00060008C
:104E800060000000000000000000000000000000C2
:104E9000E003F007380E180C0C180C180C180C183E
:104EA0000C180C180C180C180C18180C380EF007ED
:104EB000E00300000000000000000000000000000F
:104EC00000018001C001F00198018801800180018A
:104ED00080018001800180018001800180018001CA
:104EE0008001000000000000000000000000000041
:104EF000E003F80F180C0C180C1800180018000C20
:104F0000000600038001C000600030001800FC1F94
:104F1000FC1F000000000000000000000000000076
:104F2000E001F807180E0C0C0C0C000C0006C00376
:104F3000C007000C001800180C180C18180CF80703
:104F4000E00300000000000000000000000000007E
:104F5000000C000E000F000F800DC00C600C600CE8
:104F6000300C180C0C0CFC3FFC3F000C000C000C2F
:104F7000000C000000000000000000000000000025
:104F8000F80FF80F180018000C00EC03FC071C0EBB
:104F9000001C0018001800180C181C0C180EF8073C
:104FA000E00300000000000000000000000000001E
:104FB000C007F00F381C181818000C00CC03EC0FB9
:104FC0003C0E1C1C0C180C180C18181C380EF00782
:104FD000E0030000000000000000000000000000EE
:104FE000FC1FFC1F000C000600060003800380016C
:104FF000C001C000E00060006000700030003000C0
:105000003000000000000000000000000000000070
:10501000E003F007380E180C180C180C3806F007CF
:10502000F007180C0C180C180C180C18380CF80F8A
:10503000E00300000000000000000000000000008D
:10504000E003F007380E1C0C0C180C180C181C1C74
:10505000381EF81BE0190018000C000C1C0EF80795
:10506000F00100000000000000000000000000004F
:10507000000000000000000000008001800100002E
:10508000000000000000000000000000000080019F
:10509000800100000000000000000000000000008F
:1050A00000000000000000000000800180010000FE
:1050B000000000000000000000000000000080016F
:1050C00080010001000180000000000000000000DD
:1050D00000000000000000000000000000000010C0
:1050E000001C800FE003F8001800F800E003800FB8
:1050F000001C001000000000000000000000000084
:105100000000000000000000000000000000F81F88
:10511000000000000000F81F000000000000000078
:10512000000000000000000000000000000000007F
:105130000000000000000000000000000000080067
:105140003800F001C007001F0018001FC007F00161
:10515000380008000000000000000000000000000F
:10516000E003F80F180C0C180C180018000C0006BF
:1051700000038001C000C000C00000000000C000AB
:10518000C00000000000000000000000000000005F
:105190000000E00718180420C229224A11440944DB
:1051A0000944094409221113E20C02400420181892
:1051B000E007000000000000000000000000000008
:1051C00080038003C006C006C006600C600C301867
:1051D00030183018F83FF83F1C700C600C6006C0A7
:1051E00006C00000000000000000000000000000F9
:1051F000FC03FC0F0C0C0C180C180C180C0CFC0706
:10520000FC0F0C180C300C300C300C300C18FC1F40
:10521000FC0700000000000000000000000000008B
:10522000C007F01F38381C300C70066006000600FE
:10523000060006000600060006600C701C30F01F19
:10524000E007000000000000000000000000000077
:10525000FE03FE0F060E061806180630063006304E
:10526000063006300630063006180618060EFE0F09
:10527000FE0300000000000000000000000000002D
:10528000FC3FFC3F0C000C000C000C000C00FC1F51
:10529000FC1F0C000C000C000C000C000C00FC3F70
:1052A000FC3F0000000000000000000000000000C3
:1052B000F83FF83F18001800180018001800F81FF1
:1052C000F81F18001800180018001800180018001F
:1052D00018000000000000000000000000000000B6
:1052E000E00FF83F3C780E6006E007C003000300C3
:1052F00003FE03FE03C007C006C00EC03CF0F83F2B
:10530000E00F0000000000000000000000000000AE
:105310000C300C300C300C300C300C300C30FC3FAE
:10532000FC3F0C300C300C300C300C300C300C309E
:105330000C30000000000000000000000000000031
:105340008001800180018001800180018001800155
:105350008001800180018001800180018001800145
:1053600080010000000000000000000000000000BC
:1053700000060006000600060006000600060006FD
:105380000006000600060006180618063807F00397
:10539000E00100000000000000000000000000002C
:1053A00006300618060C060606038601C6006600CF
:1053B0007600DE008E0106030606060C061806308F
:1053C0000660000000000000000000000000000077
:1053D000180018001800180018001800180018000D
:1053E0001800180018001800180018001800F81FFE
:1053F000F81F000000000000000000000000000096
:105400000EE01EF01EF01EF036D836D836D836D84C
:1054100066CC66CC66CCC6C6C6C6C6C6C6C686C37D
:1054200086C3000000000000000000000000000033
:105430000C301C303C303C306C306C30CC30CC30DC
:105440008C310C330C330C360C360C3C0C3C0C38C9
:105450000C30000000000000000000000000000010
:10546000E007F81F1C380E70066003C003C003C0BD
:1054700003C003C003C003C006600E701C38F81FD1
:10548000E007000000000000000000000000000035
:10549000FC0FFC1F0C380C300C300C300C300C188E
:1054A000FC1FFC070C000C000C000C000C000C0096
:1054B0000C000000000000000000000000000000E0
:1054C000E007F81F1C380E70066003E003C003C03D
:1054D00003C003C003C007E006630E3F1C3CF83F57
:1054E000E0F700C000000000000000000000000025
:1054F000FE0FFE1F06380630063006300638FE1F47
:10550000FE0706030606060C0618061806300630C7
:105510000660000000000000000000000000000025
:10552000E003F80F1C0C0C180C180C001C00F803FE
:10553000E00F001E0038063006300E301C1CF80F3D
:10554000E007000000000000000000000000000074
:10555000FE7FFE7F8001800180018001800180014B
:105560008001800180018001800180018001800133
:1055700080010000000000000000000000000000AA
:105580000C300C300C300C300C300C300C300C303B
:105590000C300C300C300C300C300C301818F81F5C
:1055A000E007000000000000000000000000000014
:1055B00003600630063006300C180C180C18180C56
:1055C000180C380E30063006700760036003C00107
:1055D000C00100000000000000000000000000000A
:1055E0000360C361C361C361663366336633663388
:1055F000663366336C1B6C1B6C1B2C1A3C1E380EFE
:10560000380E000000000000000000000000000054
:105610000FE00C7018303018700C600EC00780035B
:105620008003C003E006700C301C18180C300E60AC
:1056300007E0000000000000000000000000000083
:1056400003C006600C301C383818300C6006E007C8
:10565000C003800180018001800180018001800100
:1056600080010000000000000000000000000000B9
:10567000FC7FFC7F006000300018000C0006000377
:105680008001C0006000300018000C000600FE7FA2
:10569000FE7F00000000000000000000000000008D
:1056A000E003E003600060006000600060006000F4
:1056B00060006000600060006000600060006000EA
:1056C0006000600060006000E003E0030000000094
:1056D00030003000600060006000C000C000C0000A
:1056E000C001800180018001000300030003000667
:1056F00000060000000000000000000000000000A4
:10570000E003E003000300030003000300030003C1
:105710000003000300030003000300030003000371
:105720000003000300030003E003E00300000000A7
:105730000000C001C0016003600360033006300652
:10574000180C180C00000000000000000000000011
:105750000000000000000000000000000000000049
:105760000000000000000000000000000000000039
:105770000000000000000000000000000000000029
:10578000FFFFFFFF0000000000000000000000001D
:105790000C000C000C000C000C000C0000000000C1
:1057A00000000000000000000000000000000000F9
:1057B00000000000000000000000000000000000E9
:1057C00000000000000000000000F003F8071C0CBF
:1057D0000C0C000FF00FF80C0C0C0C0C1C0FF80F3D
:1057E000F0180000000000000000000000000000B1
:1057F00018001800180018001800D803F80F380C0B
:10580000181818181818181818181818380CF80F2D
:10581000D8030000000000000000000000000000AD
:1058200000000000000000000000C003F007300E80
:10583000180C1800180018001800180C300EF0078B
:10584000C003000000000000000000000000000095
:1058500000180018001800180018C01BF01F301C9A
:10586000181818181818181818181818301CF01FBD
:10587000C01B00000000000000000000000000004D
:1058800000000000000000000000C003F00F300C1A
:105890001818F81FF81F180018003818301CF00FDF
:1058A000C007000000000000000000000000000031
:1058B000800FC00FC000C000C000F007F007C0009C
:1058C000C000C000C000C000C000C000C000C000D8
:1058D000C000000000000000000000000000000008
:1058E00000000000000000000000E00DF80F180E9E
:1058F0000C0C0C0C0C0C0C0C0C0C0C0C180EF80FEB
:10590000E00D000C0C0C1C06F807F0010000000074
:1059100018001800180018001800D807F80F381CD5
:1059200018181818181818181818181818181818F7
:105930001818000000000000000000000000000037
:10594000C000C000000000000000C000C000C00097
:10595000C000C000C000C000C000C000C000C00047
:10596000C000000000000000000000000000000077
:10597000C000C000000000000000C000C000C00067
:10598000C000C000C000C000C000C000C000C00017
:10599000C000C000C000C000F80078000000000097
:1059A0000C000C000C000C000C000C0C0C060C0382
:1059B0008C01CC006C00FC009C018C030C030C06D9
:1059C0000C0C0000000000000000000000000000BF
:1059D000C000C000C000C000C000C000C000C000C7
:1059E000C000C000C000C000C000C000C000C000B7
:1059F000C0000000000000000000000000000000E7
:105A0000000000000000000000007C3CFF7EC7E3B7
:105A100083C183C183C183C183C183C183C183C166
:105A200083C1000000000000000000000000000032
:105A3000000000000000000000009807F80F381C6C
:105A400018181818181818181818181818181818D6
:105A50001818000000000000000000000000000016
:105A600000000000000000000000C003F00F300C38
:105A7000181818181818181818181818300CF00FCB
:105A8000C003000000000000000000000000000053
:105A900000000000000000000000D803F80F380CE0
:105AA000181818181818181818181818380CF80F8B
:105AB000D803180018001800180018000000000093
:105AC00000000000000000000000C01BF01F301CA0
:105AD000181818181818181818181818301CF01F4B
